{
  "contractName": "CoinFlipContract",
  "abi": [
    {
      "anonymous": false,
      "inputs": [
        {
          "indexed": false,
          "internalType": "bool",
          "name": "result",
          "type": "bool"
        }
      ],
      "name": "CoinFlip",
      "type": "event"
    },
    {
      "anonymous": false,
      "inputs": [
        {
          "indexed": true,
          "internalType": "address",
          "name": "previousOwner",
          "type": "address"
        },
        {
          "indexed": true,
          "internalType": "address",
          "name": "newOwner",
          "type": "address"
        }
      ],
      "name": "OwnershipTransferred",
      "type": "event"
    },
    {
      "stateMutability": "payable",
      "type": "fallback"
    },
    {
      "inputs": [],
      "name": "owner",
      "outputs": [
        {
          "internalType": "address",
          "name": "",
          "type": "address"
        }
      ],
      "stateMutability": "view",
      "type": "function"
    },
    {
      "inputs": [],
      "name": "renounceOwnership",
      "outputs": [],
      "stateMutability": "nonpayable",
      "type": "function"
    },
    {
      "inputs": [
        {
          "internalType": "address",
          "name": "newOwner",
          "type": "address"
        }
      ],
      "name": "transferOwnership",
      "outputs": [],
      "stateMutability": "nonpayable",
      "type": "function"
    },
    {
      "stateMutability": "payable",
      "type": "receive"
    },
    {
      "inputs": [],
      "name": "initialize",
      "outputs": [],
      "stateMutability": "nonpayable",
      "type": "function"
    },
    {
      "inputs": [
        {
          "internalType": "address",
          "name": "_escrow",
          "type": "address"
        }
      ],
      "name": "setEscrow",
      "outputs": [],
      "stateMutability": "nonpayable",
      "type": "function"
    },
    {
      "inputs": [],
      "name": "flip",
      "outputs": [],
      "stateMutability": "payable",
      "type": "function"
    },
    {
      "inputs": [],
      "name": "recoverFromEscrow",
      "outputs": [],
      "stateMutability": "payable",
      "type": "function"
    },
    {
      "inputs": [
        {
          "internalType": "address",
          "name": "to",
          "type": "address"
        }
      ],
      "name": "transferEscrowOwnership",
      "outputs": [],
      "stateMutability": "nonpayable",
      "type": "function"
    }
  ],
  "bytecode": "0x608060405234801561001057600080fd5b50610b43806100206000396000f3fe6080604052600436106100795760003560e01c8063c10c35461161004b578063c10c3546146100e0578063cde4efa914610100578063ed2f634314610108578063f2fde38b1461012857005b8063715018a6146100825780637a480ebd146100975780638129fc1c1461009f5780638da5cb5b146100b457005b3661008057005b005b34801561008e57600080fd5b50610080610148565b610080610187565b3480156100ab57600080fd5b506100806102c6565b3480156100c057600080fd5b50603354604080516001600160a01b039092168252519081900360200190f35b3480156100ec57600080fd5b506100806100fb366004610a10565b61039a565b61008061048f565b34801561011457600080fd5b50610080610123366004610a10565b610777565b34801561013457600080fd5b50610080610143366004610a10565b610803565b6033546001600160a01b0316331461017b5760405162461bcd60e51b815260040161017290610a40565b60405180910390fd5b6101856000610897565b565b6033546001600160a01b031633146101b15760405162461bcd60e51b815260040161017290610a40565b600260655414156102045760405162461bcd60e51b815260206004820152601f60248201527f5265656e7472616e637947756172643a207265656e7472616e742063616c6c006044820152606401610172565b60026065556097546001600160a01b03163161025b5760405162461bcd60e51b8152602060048201526016602482015275657363726f772062616c616e6365206973207a65726f60501b6044820152606401610172565b60975460405163072f436560e31b81523360048201526001600160a01b03909116803160248301529063397a1b2890604401600060405180830381600087803b1580156102a757600080fd5b505af11580156102bb573d6000803e3d6000fd5b505060016065555050565b600054610100900460ff166102e15760005460ff16156102e5565b303b155b6103485760405162461bcd60e51b815260206004820152602e60248201527f496e697469616c697a61626c653a20636f6e747261637420697320616c72656160448201526d191e481a5b9a5d1a585b1a5e995960921b6064820152608401610172565b600054610100900460ff1615801561036a576000805461ffff19166101011790555b6103726108e9565b61037a610918565b6103846001610947565b508015610397576000805461ff00191690555b50565b6033546001600160a01b031633146103c45760405162461bcd60e51b815260040161017290610a40565b6001600160a01b03811661041a5760405162461bcd60e51b815260206004820152601960248201527f657363726f77206164647265737320697320696e76616c6964000000000000006044820152606401610172565b6001813b15151461046d5760405162461bcd60e51b815260206004820152601b60248201527f657363726f772073686f756c64206265206120636f6e747261637400000000006044820152606401610172565b609780546001600160a01b0319166001600160a01b0392909216919091179055565b600260655414156104e25760405162461bcd60e51b815260206004820152601f60248201527f5265656e7472616e637947756172643a207265656e7472616e742063616c6c006044820152606401610172565b600260655534806105355760405162461bcd60e51b815260206004820152601d60248201527f636f696e20746f737320726571756972657320736f6d652063686970730000006044820152606401610172565b6097546001600160a01b03166105865760405162461bcd60e51b8152602060048201526016602482015275195cd8dc9bddc81cda1bdd5b1908189948189bdd5b9960521b6044820152606401610172565b60006105926000610947565b905060018082161590811415610688576105ad836002610a8b565b6097546001600160a01b03163110156106085760405162461bcd60e51b815260206004820152601e60248201527f657363726f772062616c616e636520697320696e73756666696369656e7400006044820152606401610172565b6097546001600160a01b031663397a1b2833610625866002610a8b565b6040516001600160e01b031960e085901b1681526001600160a01b0390921660048301526024820152604401600060405180830381600087803b15801561066b57600080fd5b505af115801561067f573d6000803e3d6000fd5b50505050610738565b6097546040516000916001600160a01b03169061753090869084818181858888f193505050503d80600081146106da576040519150601f19603f3d011682016040523d82523d6000602084013e6106df565b606091505b50909150506001811515146107365760405162461bcd60e51b815260206004820152601960248201527f5472616e7366657220746f20657363726f77206661696c6564000000000000006044820152606401610172565b505b60405181151581527f39cd2899599783afab8037c5f2c9254e8733abc2468f1a9c3ede3aa66efaa9109060200160405180910390a15050600160655550565b6033546001600160a01b031633146107a15760405162461bcd60e51b815260040161017290610a40565b60975460405163f2fde38b60e01b81526001600160a01b0383811660048301529091169063f2fde38b90602401600060405180830381600087803b1580156107e857600080fd5b505af11580156107fc573d6000803e3d6000fd5b5050505050565b6033546001600160a01b0316331461082d5760405162461bcd60e51b815260040161017290610a40565b6001600160a01b0381166108925760405162461bcd60e51b815260206004820152602660248201527f4f776e61626c653a206e6577206f776e657220697320746865207a65726f206160448201526564647265737360d01b6064820152608401610172565b610397815b603380546001600160a01b038381166001600160a01b0319831681179093556040519116919082907f8be0079c531659141344cd1fd0a4f28419497f9722a3daafe3b4186f6b6457e090600090a35050565b600054610100900460ff166109105760405162461bcd60e51b815260040161017290610aaa565b6101856109b2565b600054610100900460ff1661093f5760405162461bcd60e51b815260040161017290610aaa565b6101856109e2565b60004282156109565760988190555b601081609854166f0c1bf57be3d9d0668612b7ba93616c536109789190610a8b565b610992906f0126e489f71c41c28951ca38a43c8317610af5565b6f7fffffffffffffffffffffffffffffff911c1660988190559392505050565b600054610100900460ff166109d95760405162461bcd60e51b815260040161017290610aaa565b61018533610897565b600054610100900460ff16610a095760405162461bcd60e51b815260040161017290610aaa565b6001606555565b600060208284031215610a2257600080fd5b81356001600160a01b0381168114610a3957600080fd5b9392505050565b6020808252818101527f4f776e61626c653a2063616c6c6572206973206e6f7420746865206f776e6572604082015260600190565b634e487b7160e01b600052601160045260246000fd5b6000816000190483118215151615610aa557610aa5610a75565b500290565b6020808252602b908201527f496e697469616c697a61626c653a20636f6e7472616374206973206e6f74206960408201526a6e697469616c697a696e6760a81b606082015260800190565b60008219821115610b0857610b08610a75565b50019056fea264697066735822122011bf8fa8039d7240f16d5d2630e5bbba705181a50db598fd40c11b0304b7547864736f6c634300080b0033",
  "immutableReferences": {},
  "source": "// SPDX-License-Identifier: UNLICENSED\r\n\r\npragma solidity ^0.8.11;\r\n\r\nimport \"@openzeppelin/contracts-upgradeable/access/OwnableUpgradeable.sol\";\r\nimport \"@openzeppelin/contracts-upgradeable/security/ReentrancyGuardUpgradeable.sol\";\r\nimport \"@openzeppelin/contracts-upgradeable/proxy/utils/Initializable.sol\";\r\nimport \"./IFCEscrow.sol\";\r\n\r\ncontract CoinFlipContract is Initializable, OwnableUpgradeable, ReentrancyGuardUpgradeable\r\n{\r\n    address private escrow;\r\n    uint256 private randomSeed;\r\n\r\n    event CoinFlip(bool result);\r\n\r\n    receive() external payable {\r\n\r\n    }\r\n\r\n    fallback() external payable {\r\n\r\n    }\r\n\r\n    function initialize() external initializer {\r\n        __Ownable_init();\r\n        __ReentrancyGuard_init();\r\n\r\n        random(true);\r\n    }\r\n\r\n    function random(bool seedReset) internal returns (uint256) {\r\n        uint256 curTimeStamp = block.timestamp;\r\n\r\n        if (seedReset) {\r\n            randomSeed = curTimeStamp;\r\n        }\r\n\r\n        // 2 Big prime numbers which are mutually coprime will make a safe random number due to Diopantus equation // Number Theory: eUgeigne.\r\n        randomSeed = (((randomSeed & curTimeStamp) * 16095906970532733010342422905366867027 + 1531170596534094249064966829041812247) >> 16) & 0x7fffffffffffffffffffffffffffffff;\r\n        return randomSeed;\r\n    }\r\n\r\n    function isContract(address addr) private view returns (bool) {\r\n        uint size;\r\n        assembly { size := extcodesize(addr) }\r\n        return size > 0;\r\n    }\r\n\r\n    function setEscrow(address _escrow) external onlyOwner {\r\n        require(_escrow != address(0), \"escrow address is invalid\");\r\n        require(isContract(_escrow) == true, \"escrow should be a contract\");\r\n\r\n        escrow = _escrow;\r\n    }\r\n\r\n    function flip() external payable nonReentrant {\r\n        uint256 rval = msg.value;\r\n        require(rval > 0, \"coin toss requires some chips\");\r\n        require(escrow != address(0), \"escrow should be bound\");\r\n\r\n        uint256 ret = random(false);\r\n        bool bres = ((ret & 1) == 0);\r\n        if (bres == true) {\r\n            require (escrow.balance >= rval * 2, \"escrow balance is insufficient\");\r\n            IFCEscrow(escrow).requestWithdraw(msg.sender, rval * 2);\r\n        } else {\r\n            (bool sent, ) = payable(escrow).call{value: rval, gas:30000}(\"\");\r\n            require(sent == true, \"Transfer to escrow failed\");\r\n        }\r\n\r\n        emit CoinFlip(bres);\r\n    }\r\n\r\n    function recoverFromEscrow() external payable onlyOwner nonReentrant {\r\n        require (escrow.balance > 0, \"escrow balance is zero\");\r\n        IFCEscrow(escrow).requestWithdraw(msg.sender, escrow.balance);\r\n    }\r\n\r\n    function transferEscrowOwnership(address to) external onlyOwner {\r\n        IFCEscrow(escrow).transferOwnership(to);\r\n    }\r\n}\r\n",
  "sourcePath": "E:\\MyGitHub\\FundamentalSecretsAssement\\FCContracts\\contracts\\CoinFlipContract.sol",
  "compiler": {
    "name": "solc",
    "version": "0.8.11+commit.d7f03943.Emscripten.clang"
  },
  "schemaVersion": "3.4.4",
  "updatedAt": "2022-02-23T23:45:49.398Z",
  "devdoc": {
    "kind": "dev",
    "methods": {
      "owner()": {
        "details": "Returns the address of the current owner."
      },
      "renounceOwnership()": {
        "details": "Leaves the contract without owner. It will not be possible to call `onlyOwner` functions anymore. Can only be called by the current owner. NOTE: Renouncing ownership will leave the contract without an owner, thereby removing any functionality that is only available to the owner."
      },
      "transferOwnership(address)": {
        "details": "Transfers ownership of the contract to a new account (`newOwner`). Can only be called by the current owner."
      }
    },
    "version": 1
  },
  "userdoc": {
    "kind": "user",
    "methods": {},
    "version": 1
  }
}